:100000000C9481000C94A9000C94A9000C94A900F4
:100010000C94A9000C94A9000C94A9000C94A900BC
:100020000C94A9000C94A9000C94A9000C94A900AC
:100030000C94A9000C94A9000C94A9000C94A9009C
:100040000C94A9000C94A9000C94A9000C94A9008C
:100050000C94A9000C94A9000C94A9000C94A9007C
:100060000C94A9000C94A9000C94A9000C94A9006C
:100070000C94A9000C94A9000C94A90007634236C3
:10008000B79BD8A71A39685618AEBAAB558C1D3C29
:10009000B7CC5763BD6DEDFD753EF6177231BF00ED
:1000A0000000803F08000000BE922449123EABAA27
:1000B000AA2ABECDCCCC4C3E00000080BEABAAAA82
:1000C000AA3E00000000BF000000803F00000000CA
:1000D00000084178D3BB4387D1133D190E3CC3BD03
:1000E0004282AD2B3E68EC8276BED98FE1A93E4CB0
:1000F00080EFFFBE01C4FF7F3F0000000000CD2362
:10010000D12311241FBECFEFD8E0DEBFCDBF12E058
:10011000A0E0B1E0E4E1FFE402C005900D92AE344E
:10012000B107D9F722E0AEE4B2E001C01D92AF34CE
:10013000B207E1F710E0C0E8D0E004C02197FE016B
:100140000E94E923CF37D107C9F70E9487230C9477
:100150007D270C940000CF93DF93DB012FEF1396E4
:100160002C931397EC01E881E23108F031C0F0E004
:10017000E454FF4F0C94E923CE00DC00EB00F500C3
:100180000001080113011B012601E8002E013201C4
:100190003A013E0146014A014E01560187E08C9327
:1001A00081E011968C93119783E012968C931297AD
:1001B00085E013968C930CC088E08C938AE01196AE
:1001C0008C93119782E012968C93129713961C923F
:1001D000DF91CF91089581E08C938BE011968C9301
:1001E000119783E012968C93F3CF1C9282E01196C4
:1001F0008C9311978CE012968C93129784E0D9CF50
:1002000085E08C9383E011968C9311978DE0EACF73
:1002100086E08C9311961C92119784E012968C9331
:1002200012978EE0C6CF87E08C938FE011968C9367
:10023000119785E0D7CF80E18C9388E011968C935D
:10024000119712961C92129786E0B3CF87E08C9399
:1002500081E111968C93119781E0C4CF81E18C9359
:100260008BE0F7CF8AE08C938CE011968C931197FA
:1002700082E0B8CF83E08C938BE0C5CF8CE08C9389
:1002800084E011968C9311978EE0ACCF8FE08C9325
:1002900085E0B9CF80E18C9386E0F3CF81E18C9348
:1002A00087E011968C9311978FE09CCF80E18C931F
:1002B0008AE011968C93119788E094CFDB012C9102
:1002C000DA01EC91B2E12B9F800D911D1124E80F12
:1002D000F92FF11D808108952F923F924F925F92E6
:1002E0006F927F928F929F92AF92BF92CF92DF9246
:1002F000EF92FF920F931F93CF93DF9300D000D024
:100300001F92CDB7DEB76C015B0185E0E4E4F2E05B
:10031000DE01119601900D928A95E1F7212C312C86
:10032000512C3B0185E0680E711CD601A50DB11D55
:100330008C911196EC91119792E1989FA001112454
:1003400040505F4FE40FF52FF11D4080552009F418
:10035000F3C0E7E0E415C8F0E42DF0E0EE54FE4F02
:100360000C94E923BA01120229023B024D025D02FC
:1003700073028702243009F478C008F04DC022309F
:1003800008F064C086E90E94C41D539475018E0173
:100390000F5F1F4F4601850C911CF4018081F7010E
:1003A00091917F01891309C0F8019081992329F067
:1003B0000E940423F801108233940F5F1F4FE6144C
:1003C000F70459F7F5E03F1208C0211006C00E945B
:1003D00005090E94A10822242394242DF40181817F
:1003E0008F3F09F0A2CF0F900F900F900F900F90BA
:1003F000DF91CF911F910F91FF90EF90DF90CF9001
:10040000BF90AF909F908F907F906F905F904F9034
:100410003F902F900C94A21D273008F0B3CF0E947C
:100420000920B0CF11979C919A3029F48B30B9F7FD
:100430000E947322A7CF9C3029F48B3081F70E9451
:10044000A922A0CF913059F7823049F70E94282085
:1004500099CF263040F42430C8F7223049F0245098
:100460002330E8F68FCF2630D1F70E947F1F8ACF46
:10047000511088CFD4CF11979C919C3019F48D30B6
:1004800071F6D6CF9E3019F48D3049F6D8CF93301F
:1004900031F6843021F6DACF242D233018F42130C0
:1004A00020F3BDCF243031F008F46CCF2650223039
:1004B00068F268CF511066CFD8CF11979C919E30CB
:1004C00021F48F3009F0ABCFB3CF903121F48F30CE
:1004D00009F0A5CFB4CF953009F0A1CF863009F04F
:1004E0009ECFB4CF242D233009F4B0CF40F4223076
:1004F00009F4BBCF2250233008F0A8CF43CF2430DB
:1005000009F48DCF2630B1F751103CCF9FCF119712
:100510009C91903121F4813109F081CF89CF9A30BB
:1005200021F4813109F07BCF8ACF973009F077CF62
:10053000883009F074CF8ACFF7E0F41508F425CF9E
:10054000E42DF0E0EA55FD4F0C94E923C2011202BC
:100550000F023B024C025D0272028702DC01EC9149
:10056000DB018C91E81709F48DC0E23108F034C04A
:10057000F0E0E354FD4F0C94E923CF02D302D702FD
:10058000DF02E602EE02F402FB020103EC020803C2
:100590000E0315031C0323032A0332033A03897F46
:1005A0008130D1F411C0857F811116C00DC0982F04
:1005B0009D7F913049F08B3079F487E00895982F32
:1005C000977F8D7F943081F785E008958330E1F344
:1005D0008530D1F38D3089F38FEF0895982F977F71
:1005E0008B7F963009F7F0CF982F9D7F953061F380
:1005F0008F3091F7E2CF863039F3803129F3877F4E
:10060000D3CF873009F38130F9F2813129F7D5CF83
:100610008B3011F0813121F68AE008958A30E1F3C0
:100620008C30D1F38230C1F6C8CF8B30A9F38D3036
:1006300099F3833089F6C8CF982F9D7F9C3061F362
:10064000843051F6BACF982F9D7F9D3029F38530A5
:1006500019F608958E3001F38031F1F2863009F0F9
:10066000BBCFABCF8F30C1F28131B1F2873009F00F
:10067000B3CFAACF8A3081F2803171F2883009F08D
:10068000ABCF9BCF80E008952F923F924F925F9225
:100690006F927F928F929F92AF92BF92CF92DF9292
:1006A000EF92FF920F931F93CF93DF93CDB7DEB7F7
:1006B000ED970FB6F894DEBF0FBECDBF3C012B0106
:1006C0008A016E0147E3C40ED11CFE01B5968FEF7F
:1006D0008193EC15FD05E1F7D301EC9145E250E083
:1006E0004C0F5D1F4E0F511DFA0110827E0153E128
:1006F000E50EF11CFE01319681E08193EE15FF05B8
:10070000E1F75E018BE3A80EB11CD2019C91292F69
:1007100030E0E1E0F0E0EC0FFD1FE20FF31F80811D
:10072000882309F455C0E5E2F0E0EC0FFD1F2E0F21
:100730003F1FD9013C91FE01B596DE011196892F2C
:1007400020E04D91442329F04081431710F4822F7B
:10075000342F2F5F31962231A1F78BAFE1E0F0E02B
:10076000EC0FFD1FE80FF11D1082981789F1B601FB
:10077000C5010E94AB002BACB601E5E2F0E0EC0F46
:10078000FD1FE20DF11DFDAFECAFDB013D904D0112
:10079000BFEF3B1609F4B9CFC5010E94AE02ECAD24
:1007A000FDAD9081890F232D30E0E5E2F0E0EC0F04
:1007B000FD1FE20FF31F9081891728F480832E0D0F
:1007C0003F1DD9012C92B4018A149B04F1F69DCFF0
:1007D00085E18150F801E80FF11D9083F701E90FE1
:1007E000F11D3081F3012081291334C0F8019801F3
:1007F0002B5E3F4F9FEF853178F5D801A80FB11DD3
:100800004C9140838F5F3196E217F307A1F7D20135
:10081000EC9145E250E04C0F5D1F4E0F511DFA0167
:100820008081ED960FB6F894DEBF0FBECDBFDF918D
:10083000CF911F910F91FF90EF90DF90CF90BF90DD
:10084000AF909F908F907F906F905F904F903F9070
:100850002F900895932FBDCF9083D5CFEF92FF9225
:100860000F931F93CF937C0125E1E20EF11CC0E0B2
:10087000FC0121812F3F61F08C010F5F1F4F0E158E
:100880001F0531F0B8010E94AE02C80FC801F0CFB9
:100890008C2FCF911F910F91FF90EF9008952F9281
:1008A0003F924F925F926F927F928F929F92AF9200
:1008B000BF92CF92DF92EF92FF920F931F93CF934D
:1008C000DF934B015A016C019C01275E3F4FFC01F5
:1008D000108211821282138214823596E217F30776
:1008E000B9F7EC013401EE24E394F12C250185E104
:1008F000480E511C33243A9495E0292E8701F501C6
:100900003192E415F505E1F7B401600F711FA501FF
:10091000C3010E944403F601E00FF11F8083209E73
:10092000F001219EF00D1124EC0FFD1F80830F5F5D
:100930001F4F053021F78FEF681A780A85E0C80E3F
:10094000D11C21968FEFE81AF80A85E0E816F10429
:10095000A9F6DF91CF911F910F91FF90EF90DF905B
:10096000CF90BF90AF909F908F907F906F905F904F
:100970004F903F902F9008952F923F924F925F9209
:100980006F927F928F929F92AF92BF92CF92DF929F
:10099000EF92FF920F931F93CF93DF93CDB7DEB704
:1009A0002B970FB6F894DEBF0FBECDBF3C018A0176
:1009B0004901FA013F832E833B872A87CE010196A6
:1009C0001C017A0140E051E085E0A82E59835A834A
:1009D0005B835C835D83D7014C93D1011D921D0124
:1009E000AA85BB851C92B701B4E0BB2ECE0101964F
:1009F0002C0130E020E08FEFD2019D912D01992351
:100A0000A9F08F3F09F48DC0DB019C916301A99E81
:100A1000C00CD11C1124D601A20FB31FC80ED11CCB
:100A20009C91D601DC909D1508F47BC02F5F3F4F51
:100A30002530310509F7DB0111968C9390E0CC2429
:100A4000C394D12CCC0EDD1EC80ED91ED6011C922B
:100A5000DB012C916F5F7F4FD301A29EA00DB11DD2
:100A600011248A0F9B1FAA85BB852C91DC018C91D8
:100A7000820FAA85BB858C93BA94B110B7CF4F5F14
:100A8000B5E0EB0EF11C8A859B8501969B878A87D2
:100A9000453009F09BCFA801475E5F4F95E0848108
:100AA000AE81BF817D91BF83AE83282F30E0D4011A
:100AB000A20FB31F6C917617B8F4929FD001939F49
:100AC000B00D1124A00FB11F8C93838111968C93CC
:100AD0001197828112968C931297818113968C9331
:100AE0001397808114968C9335964E175F07B9F64D
:100AF0002B960FB6F894DEBF0FBECDBFDF91CF911E
:100B00001F910F91FF90EF90DF90CF90BF90AF902B
:100B10009F908F907F906F905F904F903F902F901D
:100B20000895822F83CFEF92FF921F93CF93DF938D
:100B3000162F7A01E9018830A0F5E82FF0E0ED5595
:100B4000FA4F0C94E923AB05BF05DA05EC05FE0569
:100B5000100623063606613049F40E94F41C888191
:100B6000E80EF11C8AE0F70180831BC06230C9F4F3
:100B70000E94101D8881E80EF11C81E0F4CF6130E5
:100B800039F40E94F41C8881E80EF11C8BE0EBCF55
:100B9000623039F40E94101D8881E80EF11CF701C3
:100BA000108388818F5F8883DF91CF911F91FF90A1
:100BB000EF900895613039F40E94F41C8881E80EAA
:100BC000F11C8CE0D0CF623061F70E94101D88814B
:100BD000E80EF11C83E0C7CF613039F40E94F41CA9
:100BE0008881E80EF11C8DE0BECF6230D1F60E9404
:100BF000101D8881E80EF11C84E0B5CF613039F416
:100C00000E94F41C8881E80EF11C8EE0ACCF6230AB
:100C100041F60E94101D8881E80EF11C85E0A3CFEB
:100C2000613039F40E94F41C8881E80EF11C8FE0D9
:100C30009ACF623009F0B5CF0E94101D8881E80E6E
:100C4000F11C86E090CF613039F40E94F41C888159
:100C5000E80EF11C80E187CF623009F0A2CF0E943C
:100C6000101D8881E80EF11C87E07DCF613039F4DA
:100C70000E94F41C8881E80EF11C81E174CF62307F
:100C800009F08FCF0E94101D8881E80EF11C88E0CA
:100C90006ACFCF92DF92EF92FF920F931F93CF9381
:100CA000DF931F92CDB7DEB76C0119820E949D1DA4
:100CB00010E0F12C00E0F1103DC089818530D0F5C5
:100CC000202F2170E22E00FD5FC00E942C1D82307B
:100CD00009F09FC08FE097E20197F1F700C0000094
:100CE0000E942C1D823009F05CC00E94A21D9E0152
:100CF0002F5F3F4FA60162E0802F0E9493050E9464
:100D00009D1D8FEF94E32CE0815090402040E1F74F
:100D100000C0000010E0FF24F3948FE097E20197F9
:100D2000F1F700C00000E11071C00E942C1D1817DF
:100D300008F4182F0E946E1D882329F000FD03C0BF
:100D40000F5F10E0F12C0E94691D882329F000FF3D
:100D500003C00F5F10E0F12C083008F4ACCF9FEF18
:100D600022E587E0915020408040E1F700C000007C
:100D70000E94A21D0F90DF91CF911F910F91FF90C4
:100D8000EF90DF90CF9008950E94411D8230B1F521
:100D90008FE097E20197F1F700C000000E94411D2B
:100DA000A1CF181708F4B9CF811720F68FE097E28A
:100DB0000197F1F700C00000E11047C00E942C1D10
:100DC000811708F0B7CF0E94A21D9E012F5F3F4FF1
:100DD000A601612F802F0E9493050E94DD220E94B0
:100DE0009D1D9FEF24E38CE0915020408040E1F76F
:100DF00000C0000010E0FF24F3949CCF1817E0F42B
:100E00008FE097E20197F1F700C000000E94411DBA
:100E10008ECF181738F48FE097E20197F1F700C0F2
:100E2000000083CF811708F085CF8FE097E201970C
:100E3000F1F700C00000C2CF811708F07BCF8FE030
:100E400097E20197F1F700C000000E94411DB8CF62
:100E50002F923F924F925F926F927F928F929F92CA
:100E6000AF92BF92CF92DF92EF92FF920F931F93B8
:100E7000CF93DF93CDB7DEB7C45CD1090FB6F8943A
:100E8000DEBF0FBECDBF3C017B01AE0144565F4FBC
:100E9000BC01CE0182599F4F0E944F049E012A54EB
:100EA0003F4FAE014B5A5F4FB301CE0182599F4F66
:100EB0000E94BC049E012A543F4F19014E0131EBA0
:100EC000830E911CD12CC12C512C54011982AE01DE
:100ED00049575F4FB3016C0D7D1DCE0101960E94F5
:100EE0004403D1019D911D01890FF40181934F01AC
:100EF000E52DF0E0CC2031F0EA0DFB1D9081891743
:100F000008F45C2CFFEFCF1ADF0A25E0C216D104EB
:100F1000E9F6852C912C1982B301680D791DAE017B
:100F200049575F4FCE0101960E94440310E0812F84
:100F300090E0E7E8F0E0EC0FFD1FE80FF91F2081DB
:100F400031E0310F2F3F31F08E0D9F1DDC012C93CE
:100F5000132FEDCF85E5C82ED12CCC0EDD1EB5E0CC
:100F60005B9EC00CD11C112494E0592ED601ED914A
:100F70006D01E60DF72DF11D8081C554DF4F88838B
:100F8000CB5BD040EC91E60DF72DF11D808189837C
:100F9000AE0144565F4FBE016F5F7F4FCE01855457
:100FA0009F4F0E94440381E0ECE9F0E0EC0FFD1F4D
:100FB000E80FF11D9081212E312C21E0210F9F3F60
:100FC00039F02E0C3F1CF10190838F5F122FECCF74
:100FD0005A945110CBCF8091490290914A02A0912E
:100FE0004B02B0914C02C154DF4F88839983AA838E
:100FF000BB83CF5BD0409E0121543F4F3901AE01EE
:101000004F5F5F4F6A01CE0185549F4FCD53DF4F35
:1010100099838883C35CD040412C91E0291A310820
:101020002E0C3F1CA601B301C1010E944403CD5305
:10103000DF4FA881B981C35CD0408D93CD53DF4F82
:10104000B983A883C35CD040E42DF0E0552051F073
:101050002BEB30E02C0F3D1FE20FF31F908189171F
:1010600008F4452C53943FEF631A730A45E1C40E0C
:10107000D11C54E05512D6CF512CEFEBF0E0EC0F21
:10108000FD1FE40DF51D8081833021F1E8F48130EE
:1010900029F121E035E1349DC001359D900D1124E9
:1010A000A1E0B0E0AC0FBD1F8A0F9B1FFC01E20F57
:1010B000F11D3081A12FB0E0AE0DBF1D1F5F3F3F7E
:1010C00079F03C932F5FF2CF853031F0873009F70C
:1010D00000E1DFCF0CE0DDCF0EE0DBCF0AE0D9CFBF
:1010E0000C93F701E10FF11D8FEF153118F4819387
:1010F0001F5FFBCFA80CB91CF50180818B5FEBEB68
:10110000F0E0EC0FFD1FE40DF51D9081890FCC532D
:10111000DF4F0FB6F894DEBF0FBECDBFDF91CF918A
:101120001F910F91FF90EF90DF90CF90BF90AF9005
:101130009F908F907F906F905F904F903F902F90F7
:10114000089583E081B99CE094B917B89FEF9AB9EC
:1011500092E49093B00024E02093B1001092B30089
:1011600094BD85BD17BCE0E8F0E08081816A808392
:10117000E1E8F0E08081826080831092820010922A
:101180008500109284002FE788E391E02150804091
:101190009040E1F700C00000089562E081E00E9405
:1011A0003A0912B82FEF34E34CE021503040404070
:1011B000E1F700C000008BE090E021E022B95FE79A
:1011C00038E341E0515030404040E1F700C00000BA
:1011D00012B85FE738E341E0515030404040E1F75A
:1011E00000C00000019751F7089583E081B98CE0B9
:1011F00084B917B81AB82FE788E391E021508040EE
:101200009040E1F700C0000008950E94F5082FE724
:1012100088E391E0215080409040E1F700C0000059
:101220004A9903C00E942709FBCF0E9438092FEF7B
:101230008DE399E4215080409040E1F700C0000028
:10124000089582E082B9089581E082B9089581E02D
:1012500082B98FEC97E00197F1F700C0000082E0BF
:1012600082B98FEA96E30197F1F700C00000089574
:1012700012B80895CF92DF92EF92FF920F931F93CF
:10128000962F04EB10E020E030E040E050E0BA019F
:10129000C12CD12C7601C016D106E206F30658F413
:1012A00082B9E2E2EA95F1F700C0EFEFCE1ADE0A6A
:1012B000EE0AFE0AF0CFC12CD12C7601C416D50659
:1012C000E606F70658F492B9E2E2EA95F1F700C0B3
:1012D000EFEFCE1ADE0AEE0AFE0AF0CF4F5F5F4F45
:1012E0006F4F7F4F0150110921093109443B5105CE
:1012F0006105710569F61F910F91FF90EF90DF90E6
:10130000CF9008950E941E2428E631E94DE65DEB5A
:101310000E9484249B01AC016DEC7CEC8CE290E497
:101320000E94F12420E030EE4EEE54E40E9484242A
:101330000E94EF236093B30008951092B3000895C4
:101340000E941E2428E631E94DE65DEB0E948424CC
:101350009B01AC016DEC7CEC8CE290E40E94F124EA
:1013600020E030EE4EEE54E40E9484240E94EF23ED
:1013700067BD089517BC08950F931F93CF93DF9314
:1013800062E370E080E090E00E94820966E270E033
:1013900080E090E00E94A0092FEB84ED91E02150C5
:1013A00080409040E1F700C000006DE270E080E016
:1013B00090E00E948209EFEBF4ED21E0E150F04073
:1013C0002040E1F700C0000064E370E080E090E0BE
:1013D0000E9482098FEB94EDE1E081509040E04063
:1013E000E1F700C000006DE270E080E090E00E9454
:1013F0008209FFEB24ED81E0F15020408040E1F7CD
:1014000000C0000065E370E080E090E00E94820987
:1014100017BC9FEBE4EDF1E09150E040F040E1F7C4
:1014200000C000006DE270E080E090E00E94820960
:101430002FEB84ED91E0215080409040E1F700C017
:10144000000062E370E080E090E00E948209EFEB30
:10145000F4ED21E0E150F0402040E1F700C0000051
:101460006DE270E080E090E00E9482098FEB94EDE5
:10147000E1E081509040E040E1F700C0000064E30B
:1014800070E080E090E00E948209FFEB24ED81E0B3
:10149000F15020408040E1F700C000006DE270E0B4
:1014A00080E090E00E9482099FEBE4EDF1E0915032
:1014B000E040F040E1F700C0000065E370E080E04C
:1014C00090E00E9482092FEB84ED91E02150804052
:1014D0009040E1F700C000006DE270E080E090E035
:1014E0000E948209EFEBF4ED21E0E150F040204052
:1014F000E1F700C0000067E370E080E090E00E9448
:1015000082098FEB94EDE1E081509040E040E1F7FB
:1015100000C000006DE270E080E090E00E9482096F
:10152000FFEB24ED81E0F15020408040E1F700C066
:10153000000065E370E080E090E00E9482099FEB8C
:10154000E4EDF1E09150E040F040E1F700C0000030
:101550006DE270E080E090E00E9482092FEB84ED64
:1015600091E0215080409040E1F700C000006CE322
:1015700070E080E090E00E948209EFEBF4ED21E062
:10158000E150F0402040E1F700C000006DE270E063
:1015900080E090E00E9482098FEB94EDE1E08150C1
:1015A0009040E040E1F700C0000069E370E080E0B7
:1015B00090E00E948209FFEB24ED81E0F150204091
:1015C0008040E1F700C000006DE270E080E090E054
:1015D0000E9482099FEBE4EDF1E09150E040F04081
:1015E000E1F700C000006AE370E080E090E00E9454
:1015F00082092FEB84ED91E0215080409040E1F78B
:1016000000C000006DE270E080E090E00E9482097E
:10161000EFEBF4ED21E0E150F0402040E1F700C0B5
:10162000000067E370E080E090E00E9482098FEBA9
:1016300094EDE1E081509040E040E1F700C000000F
:101640006DE270E080E090E00E948209FFEB24ED03
:1016500081E0F15020408040E1F700C0000069E3E4
:1016600070E080E090E00E9482099FEBE4EDF1E001
:101670009150E040F040E1F700C000006DE270E002
:1016800080E090E00E9482092FEB84ED91E02150F0
:1016900080409040E1F700C0000065E370E080E02A
:1016A00090E00E948209EFEBF4ED21E0E150F04080
:1016B0002040E1F700C000006DE270E080E090E0C3
:1016C0000E9482098FEB94EDE1E081509040E04070
:1016D000E1F700C0000067E370E080E090E00E9466
:1016E000820964E270E080E090E00E94A009FFE7D8
:1016F00028E381E0F15020408040E1F700C0000085
:1017000017BCEFE4F3EC3197F1F700C000006DE295
:1017100070E080E090E00E94820964E270E080E086
:1017200090E00E94A009FFE728E381E0F15020400B
:101730008040E1F700C0000017BCEFE4F3EC319704
:10174000F1F700C0000064E370E080E090E00E94E8
:10175000820964E270E080E090E00E94A009FFE767
:1017600028E381E0F15020408040E1F700C0000014
:1017700017BCEFE4F3EC3197F1F700C000006DE225
:1017800070E080E090E00E94820964E270E080E016
:1017900090E00E94A009FFE728E381E0F15020409B
:1017A0008040E1F700C0000017BCEFE4F3EC319794
:1017B000F1F700C0000062E370E080E090E00E947A
:1017C000820966E270E080E090E00E94A009FFEBF1
:1017D00024ED81E0F15020408040E1F700C000009E
:1017E0006DE270E080E090E00E9482099FEBE4ED02
:1017F000F1E09150E040F040E1F700C0000064E308
:1018000070E080E090E00E9482092FEB84ED91E08F
:10181000215080409040E1F700C000006DE270E090
:1018200080E090E00E948209EFEBF4ED21E0E150CE
:10183000F0402040E1F700C0000065E370E080E088
:1018400090E00E94820917BC8FEB94EDE1E081509B
:101850009040E040E1F700C000006DE270E080E001
:1018600090E00E948209FFEB24ED81E0F1502040DE
:101870008040E1F700C0000062E370E080E090E0AB
:101880000E9482099FEBE4EDF1E09150E040F040CE
:10189000E1F700C000006DE270E080E090E00E949F
:1018A00082092FEB84ED91E0215080409040E1F7D8
:1018B00000C0000064E370E080E090E00E948209D4
:1018C000EFEBF4ED21E0E150F0402040E1F700C003
:1018D00000006DE270E080E090E00E9482098FEBF2
:1018E00094EDE1E081509040E040E1F700C000005D
:1018F00065E370E080E090E00E948209FFEB24ED58
:1019000081E0F15020408040E1F700C000006DE22E
:1019100070E080E090E00E9482099FEBE4EDF1E04E
:101920009150E040F040E1F700C0000067E370E054
:1019300080E090E00E9482092FEB84ED91E021503D
:1019400080409040E1F700C000006DE270E080E070
:1019500090E00E948209EFEBF4ED21E0E150F040CD
:101960002040E1F700C0000065E370E080E090E017
:101970000E9482098FEB94EDE1E081509040E040BD
:10198000E1F700C000006DE270E080E090E00E94AE
:101990008209FFEB24ED81E0F15020408040E1F727
:1019A00000C000006CE370E080E090E00E948209DB
:1019B0009FEBE4EDF1E09150E040F040E1F700C032
:1019C00000006DE270E080E090E00E9482092FEB61
:1019D00084ED91E0215080409040E1F700C000008C
:1019E00069E370E080E090E00E948209EFEBF4EDA3
:1019F00021E0E150F0402040E1F700C000006DE23E
:101A000070E080E090E00E9482098FEB94EDE1E0CD
:101A100081509040E040E1F700C000006AE370E0D0
:101A200080E090E00E948209FFEB24ED81E0F1501C
:101A300020408040E1F700C000006DE270E080E0EF
:101A400090E00E9482099FEBE4EDF1E09150E040CC
:101A5000F040E1F700C0000067E370E080E090E054
:101A60000E9482092FEB84ED91E02150804090404C
:101A7000E1F700C000006DE270E080E090E00E94BD
:101A80008209EFEBF4ED21E0E150F0402040E1F776
:101A900000C0000069E370E080E090E00E948209ED
:101AA0008FEB94EDE1E081509040E040E1F700C021
:101AB00000006DE270E080E090E00E948209FFEBA0
:101AC00024ED81E0F15020408040E1F700C00000AB
:101AD00065E370E080E090E00E9482099FEBE4ED16
:101AE000F1E09150E040F040E1F700C000006DE20D
:101AF00070E080E090E00E9482092FEB84ED91E09D
:101B0000215080409040E1F700C0000067E370E0A2
:101B100080E090E00E948209EFEBF4ED21E0E150DB
:101B2000F0402040E1F700C000006DE270E080E08E
:101B300090E00E9482098FEB94EDE1E081509040AB
:101B4000E040E1F700C0000064E370E080E090E076
:101B50000E948209FFEB24ED81E0F150204080409B
:101B6000E1F700C000006DE270E080E090E00E94CC
:101B700082099FEBE4EDF1E09150E040F040E1F7A5
:101B800000C0000062E370E080E090E00E94820903
:101B900064E270E080E090E00E94A0092FEB84ED09
:101BA00091E0215080409040E1F700C000006DE2DC
:101BB00070E080E090E00E948209EFEBF4ED21E01C
:101BC000E150F0402040E1F700C0000064E370E025
:101BD00080E090E00E9482098FEB94EDE1E081507B
:101BE0009040E040E1F700C000006DE270E080E06E
:101BF00090E00E948209FFEB24ED81E0F15020404B
:101C00008040E1F700C0000065E370E080E090E014
:101C10000E9482099FEBE4EDF1E09150E040F0403A
:101C2000E1F700C000006DE270E080E090E00E940B
:101C300082092FEB84ED91E0215080409040E1F744
:101C400000C0000062E370E080E090E00E94820942
:101C5000EFEBF4ED21E0E150F0402040E1F700C06F
:101C600000006DE270E080E090E00E9482098FEB5E
:101C700094EDE1E081509040E040E1F700C00000C9
:101C800064E370E080E090E00E948209FFEB24EDC5
:101C900081E0F15020408040E1F700C000006DE29B
:101CA00070E080E090E00E9482099FEBE4EDF1E0BB
:101CB0009150E040F040E1F700C0000065E370E0C3
:101CC00080E090E00E9482092FEB84ED91E02150AA
:101CD00080409040E1F700C000006DE270E080E0DD
:101CE00090E00E948209EFEBF4ED21E0E150F0403A
:101CF0002040E1F700C0000067E370E080E090E082
:101D00000E9482098FEB94EDE1E081509040E04029
:101D1000E1F700C000006DE270E080E090E00E941A
:101D20008209FFEB24ED81E0F15020408040E1F793
:101D300000C0000065E370E080E090E00E9482094E
:101D40009FEBE4EDF1E09150E040F040E1F700C09E
:101D500000006DE270E080E090E00E9482092FEBCD
:101D600084ED91E0215080409040E1F700C00000F8
:101D70006CE370E080E090E00E948209EFEBF4ED0C
:101D800021E0E150F0402040E1F700C000006DE2AA
:101D900070E080E090E00E9482098FEB94EDE1E03A
:101DA00081509040E040E1F700C0000069E370E03E
:101DB00080E090E00E948209FFEB24ED81E0F15089
:101DC00020408040E1F700C000006DE270E080E05C
:101DD00090E00E9482099FEBE4EDF1E09150E04039
:101DE000F040E1F700C000006AE370E080E090E0BE
:101DF0000E9482092FEB84ED91E0215080409040B9
:101E0000E1F700C000006DE270E080E090E00E9429
:101E10008209EFEBF4ED21E0E150F0402040E1F7E2
:101E200000C0000067E370E080E090E00E9482095B
:101E30008FEB94EDE1E081509040E040E1F700C08D
:101E400000006DE270E080E090E00E948209FFEB0C
:101E500024ED81E0F15020408040E1F700C0000017
:101E600069E370E080E090E00E9482099FEBE4ED7E
:101E7000F1E09150E040F040E1F700C000006DE279
:101E800070E080E090E00E9482092FEB84ED91E009
:101E9000215080409040E1F700C0000065E370E011
:101EA00080E090E00E948209EFEBF4ED21E0E15048
:101EB000F0402040E1F700C000006DE270E080E0FB
:101EC00090E00E9482098FEB94EDE1E08150904018
:101ED000E040E1F700C0000067E370E080E090E0E0
:101EE0000E948209FFEB24ED81E0F1502040804008
:101EF000E1F700C000006DE270E080E090E00E9439
:101F000082099FEBE4EDF1E09150E040F040E1F711
:101F100000C0000064E370E080E090E00E9482096D
:101F20002FEB84ED91E0215080409040E1F700C01C
:101F300000006DE270E080E090E00E948209EFEB2B
:101F4000F4ED21E0E150F0402040E1F700C0000056
:101F500062E370E080E090E00E9482096EE270E04F
:101F600080E090E00E94A0098FEB94EDE1E08150C9
:101F70009040E040E1F700C000006DE270E080E0DA
:101F800090E00E948209FFEB24ED81E0F1502040B7
:101F90008040E1F700C0000064E370E080E090E082
:101FA0000E9482099FEBE4EDF1E09150E040F040A7
:101FB000E1F700C000006DE270E080E090E00E9478
:101FC00082092FEB84ED91E0215080409040E1F7B1
:101FD00000C0000065E370E080E090E00E948209AC
:101FE000EFEBF4ED21E0E150F0402040E1F700C0DC
:101FF00000006DE270E080E090E00E9482098FEBCB
:1020000094EDE1E081509040E040E1F700C0000035
:1020100062E370E080E090E00E948209FFEB24ED33
:1020200081E0F15020408040E1F700C000006DE207
:1020300070E080E090E00E9482099FEBE4EDF1E027
:102040009150E040F040E1F700C0000064E370E030
:1020500080E090E00E9482092FEB84ED91E0215016
:1020600080409040E1F700C000006DE270E080E049
:1020700090E00E948209EFEBF4ED21E0E150F040A6
:102080002040E1F700C0000065E370E080E090E0F0
:102090000E9482098FEB94EDE1E081509040E04096
:1020A000E1F700C000006DE270E080E090E00E9487
:1020B0008209FFEB24ED81E0F15020408040E1F700
:1020C00000C0000067E370E080E090E00E948209B9
:1020D0009FEBE4EDF1E09150E040F040E1F700C00B
:1020E00000006DE270E080E090E00E9482092FEB3A
:1020F00084ED91E0215080409040E1F700C0000065
:1021000065E370E080E090E00E948209EFEBF4ED7F
:1021100021E0E150F0402040E1F700C000006DE216
:1021200070E080E090E00E9482098FEB94EDE1E0A6
:1021300081509040E040E1F700C000006CE370E0A7
:1021400080E090E00E9482096DE270E080E090E023
:102150000E94A009FFEB24ED81E0F1502040804077
:10216000E1F700C0000069E370E080E090E00E94C9
:1021700082099FEBE4EDF1E09150E040F040E1F79F
:1021800000C0000067E370E080E090E00E948209F8
:102190002FEB84ED91E0215080409040E1F700C0AA
:1021A000000065E370E080E090E00E948209EFEBC0
:1021B000F4ED21E0E150F0402040E1F700C00000E4
:1021C00062E370E080E090E00E9482096DE270E0DE
:1021D00080E090E00E94A0098FEB94EDE1E0815057
:1021E0009040E040E1F700C0000065E370E080E06F
:1021F00090E00E948209FFEB24ED81E0F150204045
:102200008040E1F700C0000067E370E080E090E00C
:102210000E9482099FEBE4EDF1E09150E040F04034
:10222000E1F700C0000069E370E080E090E00E9408
:1022300082092FEB84ED91E0215080409040E1F73E
:1022400000C000006CE370E080E090E00E94820932
:102250006DE270E080E090E00E94A009EFEBF4ED09
:1022600021E0E150F0402040E1F700C000006DE3C4
:1022700070E080E090E00E9482098FEB94EDE1E055
:1022800081509040E040E1F700C000006EE370E054
:1022900080E090E00E948209FFEB24ED81E0F150A4
:1022A00020408040E1F700C000006CE370E080E077
:1022B00090E00E9482099FEBE4EDF1E09150E04054
:1022C000F040E1F700C0000069E370E080E090E0DA
:1022D0000E9482096DE270E080E090E00E94A00917
:1022E0002FEB84ED91E0215080409040E1F700C059
:1022F000000067E370E080E090E00E948209EFEB6D
:10230000F4ED21E0E150F0402040E1F700C0000092
:1023100065E370E080E090E00E9482098FEB94ED2D
:10232000E1E081509040E040E1F700C0000062E34E
:1023300070E080E090E00E948209FFEB24ED81E0F4
:10234000F15020408040E1F700C0000003EB10E0B6
:10235000F801108217BC65E370E080E090E00E9415
:10236000820966E270E080E090E00E94A009FFE749
:1023700028E381E0F15020408040E1F700C00000F8
:10238000F80110828FE493EC0197F1F700C0000090
:1023900065E370E080E090E00E9482099FE7E8E357
:1023A000F1E09150E040F040E1F700C00000F8019A
:1023B00010828FE493EC0197F1F700C0000065E311
:1023C00070E080E090E00E9482099FE7E8E3F1E09E
:1023D0009150E040F040E1F700C00000F8011082A9
:1023E0008FE493EC0197F1F700C0000065E370E023
:1023F00080E090E00E9482099FE7E8E3F1E09150DD
:10240000E040F040E1F700C00000F80110828FE4E6
:1024100093EC0197F1F700C0000062E370E080E008
:1024200090E00E9482099FE7E8E3F1E09150E040EC
:10243000F040E1F700C00000F80110828FE493EC57
:102440000197F1F700C0000062E370E080E090E0E7
:102450000E9482099FE7E8E3F1E09150E040F040FC
:10246000E1F700C00000F80110828FE493EC0197BF
:10247000F1F700C0000065E370E080E090E00E94AA
:1024800082099FE7E8E3F1E09150E040F040E1F796
:1024900000C00000F80110828FE493EC0197F1F77F
:1024A00000C0000065E370E080E090E00E948209D7
:1024B0009FE7E8E3F1E09150E040F040E1F700C031
:1024C0000000F80110828FE493EC0197F1F700C04F
:1024D000000065E370E080E090E00E9482099FE7E1
:1024E000E8E3F1E09150E040F040E1F700C0000087
:1024F000F80110828FE493EC0197F1F700C000001F
:1025000065E370E080E090E00E9482099FE7E8E3E5
:10251000F1E09150E040F040E1F700C00000F80128
:1025200010828FE493EC0197F1F700C0000062E3A2
:1025300070E080E090E00E9482099FE7E8E3F1E02C
:102540009150E040F040E1F700C00000F801108237
:102550008FE493EC0197F1F700C0000062E370E0B4
:1025600080E090E00E9482099FE7E8E3F1E091506B
:10257000E040F040E1F700C00000F80110828FE475
:1025800093EC0197F1F700C0000065E370E080E094
:1025900090E00E9482099FE7E8E3F1E09150E0407B
:1025A000F040E1F700C00000F80110828FE493ECE6
:1025B0000197F1F700C0000065E370E080E090E073
:1025C0000E9482099FE7E8E3F1E09150E040F0408B
:1025D000E1F700C00000F80110828FE493EC01974E
:1025E000F1F700C0000062E370E080E090E00E943C
:1025F00082099FE7E8E3F1E09150E040F040E1F725
:1026000000C00000F80110828FE493EC0197F1F70D
:1026100000C0000062E370E080E090E00E94820968
:102620009FE7E8E3F1E09150E040F040E1F700C0BF
:102630000000F80110828FE493EC0197F1F700C0DD
:10264000000065E370E080E090E00E9482099FE76F
:10265000E8E3F1E09150E040F040E1F700C0000015
:10266000F80110828FE493EC0197F1F700C00000AD
:1026700065E370E080E090E00E9482099FE7E8E374
:10268000F1E09150E040F040E1F700C00000F801B7
:1026900010828FE493EC0197F1F700C0000065E32E
:1026A00070E080E090E00E9482099FE7E8E3F1E0BB
:1026B0009150E040F040E1F700C00000F8011082C6
:1026C0008FE493EC0197F1F700C0000065E370E040
:1026D00080E090E00E9482099FE7E8E3F1E09150FA
:1026E000E040F040E1F700C00000F80110828FE404
:1026F00093EC0197F1F700C0000062E370E080E026
:1027000090E00E9482099FE7E8E3F1E09150E04009
:10271000F040E1F700C00000F80110828FE493EC74
:102720000197F1F700C0000062E370E080E090E004
:102730000E9482099FE7E8E3F1E09150E040F04019
:10274000E1F700C00000F80110828FE493EC0197DC
:10275000F1F700C0000065E370E080E090E00E94C7
:1027600082099FE7E8E3F1E09150E040F040E1F7B3
:1027700000C00000F80110828FE493EC0197F1F79C
:1027800000C0000065E370E080E090E00E948209F4
:102790009FE7E8E3F1E09150E040F040E1F700C04E
:1027A0000000F80110828FE493EC0197F1F700C06C
:1027B000000065E370E080E090E00E9482099FE7FE
:1027C000E8E3F1E09150E040F040E1F700C00000A4
:1027D000F80110828FE493EC0197F1F700C000003C
:1027E00065E370E080E090E00E9482099FE7E8E303
:1027F000F1E09150E040F040E1F700C00000F80146
:1028000010828FE493EC0197F1F700C0000062E3BF
:1028100070E080E090E00E9482099FE7E8E3F1E049
:102820009150E040F040E1F700C00000F801108254
:102830008FE493EC0197F1F700C0000062E370E0D1
:1028400080E090E00E9482099FE7E8E3F1E0915088
:10285000E040F040E1F700C00000F80110828FE492
:1028600093EC0197F1F700C0000065E370E080E0B1
:1028700090E00E9482099FE7E8E3F1E09150E04098
:10288000F040E1F700C00000F80110828FE493EC03
:102890000197F1F700C0000065E370E080E090E090
:1028A0000E9482099FE7E8E3F1E09150E040F040A8
:1028B000E1F700C00000F80110828FE493EC01976B
:1028C000F1F700C0000062E370E080E090E00E9459
:1028D00082099FE7E8E3F1E09150E040F040E1F742
:1028E00000C00000F80110828FE493EC0197F1F72B
:1028F00000C0000062E370E080E090E00E94820986
:102900009FE7E8E3F1E09150E040F040E1F700C0DC
:102910000000C3EBD0E0F80110828FE493EC019744
:10292000F1F700C0000069E370E080E090E00E94F1
:1029300082096EE270E080E090E00E94A0099FE7CB
:10294000E8E3F1E09150E040F040E1F700C0000022
:10295000F80110828FE493EC0197F1F700C00000BA
:1029600069E370E080E090E00E9482099FE7E8E37D
:10297000F1E09150E040F040E1F700C00000F801C4
:1029800010828FE493EC0197F1F700C0000069E337
:1029900070E080E090E00E9482099FE7E8E3F1E0C8
:1029A0009150E040F040E1F700C0000018828FE451
:1029B00093EC0197F1F700C0000069E370E080E05C
:1029C00090E00E9482099FE7E8E3F1E09150E04047
:1029D000F040E1F700C0000018828FE493EC01970B
:1029E000F1F700C0000062E370E080E090E00E9438
:1029F00082099FE7E8E3F1E09150E040F040E1F721
:102A000000C0000018828FE493EC0197F1F700C03A
:102A1000000062E370E080E090E00E9482099FE79E
:102A2000E8E3F1E09150E040F040E1F700C0000041
:102A300018828FE493EC0197F1F700C0000069E37E
:102A400070E080E090E00E9482099FE7E8E3F1E017
:102A50009150E040F040E1F700C0000018828FE4A0
:102A600093EC0197F1F700C0000069E370E080E0AB
:102A700090E00E9482099FE7E8E3F1E09150E04096
:102A8000F040E1F700C0000018828FE493EC01975A
:102A9000F1F700C0000069E370E080E090E00E9480
:102AA00082099FE7E8E3F1E09150E040F040E1F770
:102AB00000C0000018828FE493EC0197F1F700C08A
:102AC000000069E370E080E090E00E9482099FE7E7
:102AD000E8E3F1E09150E040F040E1F700C0000091
:102AE00018828FE493EC0197F1F700C0000062E3D5
:102AF00070E080E090E00E9482099FE7E8E3F1E067
:102B00009150E040F040E1F700C0000018828FE4EF
:102B100093EC0197F1F700C0000062E370E080E001
:102B200090E00E9482099FE7E8E3F1E09150E040E5
:102B3000F040E1F700C0000018828FE493EC0197A9
:102B4000F1F700C0000069E370E080E090E00E94CF
:102B500082099FE7E8E3F1E09150E040F040E1F7BF
:102B600000C0000018828FE493EC0197F1F700C0D9
:102B7000000069E370E080E090E00E9482099FE736
:102B8000E8E3F1E09150E040F040E1F700C00000E0
:102B900018828FE493EC0197F1F700C0000062E324
:102BA00070E080E090E00E9482099FE7E8E3F1E0B6
:102BB0009150E040F040E1F700C0000018828FE43F
:102BC00093EC0197F1F700C0000062E370E080E051
:102BD00090E00E9482099FE7E8E3F1E09150E04035
:102BE000F040E1F700C0000018828FE493EC0197F9
:102BF000F1F700C0000069E370E080E090E00E941F
:102C000082099FE7E8E3F1E09150E040F040E1F70E
:102C100000C0000018828FE493EC0197F1F700C028
:102C2000000069E370E080E090E00E9482099FE785
:102C3000E8E3F1E09150E040F040E1F700C000002F
:102C400018828FE493EC0197F1F700C0000069E36C
:102C500070E080E090E00E9482099FE7E8E3F1E005
:102C60009150E040F040E1F700C0000018828FE48E
:102C700093EC0197F1F700C0000069E370E080E099
:102C800090E00E9482099FE7E8E3F1E09150E04084
:102C9000F040E1F700C0000018828FE493EC019748
:102CA000F1F700C0000062E370E080E090E00E9475
:102CB00082099FE7E8E3F1E09150E040F040E1F75E
:102CC00000C0000018828FE493EC0197F1F700C078
:102CD000000062E370E080E090E00E9482099FE7DC
:102CE000E8E3F1E09150E040F040E1F700C000007F
:102CF00018828FE493EC0197F1F700C0000069E3BC
:102D000070E080E090E00E9482099FE7E8E3F1E054
:102D10009150E040F040E1F700C0000018828FE4DD
:102D200093EC0197F1F700C0000069E370E080E0E8
:102D300090E00E9482099FE7E8E3F1E09150E040D3
:102D4000F040E1F700C0000018828FE493EC019797
:102D5000F1F700C0000069E370E080E090E00E94BD
:102D600082099FE7E8E3F1E09150E040F040E1F7AD
:102D700000C0000018828FE493EC0197F1F700C0C7
:102D8000000069E370E080E090E00E9482099FE724
:102D9000E8E3F1E09150E040F040E1F700C00000CE
:102DA00018828FE493EC0197F1F700C0000062E312
:102DB00070E080E090E00E9482099FE7E8E3F1E0A4
:102DC0009150E040F040E1F700C0000018828FE42D
:102DD00093EC0197F1F700C0000062E370E080E03F
:102DE00090E00E9482099FE7E8E3F1E09150E04023
:102DF000F040E1F700C0000018828FE493EC0197E7
:102E0000F1F700C0000069E370E080E090E00E940C
:102E100082099FE7E8E3F1E09150E040F040E1F7FC
:102E200000C0000018828FE493EC0197F1F700C016
:102E3000000069E370E080E090E00E9482099FE773
:102E4000E8E3F1E09150E040F040E1F700C000001D
:102E500018828FE493EC0197F1F700C0000062E361
:102E600070E080E090E00E9482099FE7E8E3F1E0F3
:102E70009150E040F040E1F700C0000018828FE47C
:102E800093EC0197F1F700C0000062E370E080E08E
:102E900090E00E9482099FE7E8E3F1E09150E04072
:102EA000F040E1F700C0000018828FE493EC019736
:102EB000F1F700C0000067E370E080E090E00E945E
:102EC00082096BE270E080E090E00E94A0099FE739
:102ED000E8E3F1E09150E040F040E1F700C000008D
:102EE00018828FE493EC0197F1F700C0000067E3CC
:102EF00070E080E090E00E9482099FE7E8E3F1E063
:102F00009150E040F040E1F700C0000018828FE4EB
:102F100093EC0197F1F700C0000067E370E080E0F8
:102F200090E00E9482099FE7E8E3F1E09150E040E1
:102F3000F040E1F700C0000018828FE493EC0197A5
:102F4000F1F700C0000067E370E080E090E00E94CD
:102F500082099FE7E8E3F1E09150E040F040E1F7BB
:102F600000C0000018828FE493EC0197F1F700C0D5
:102F7000000062E370E080E090E00E9482099FE739
:102F8000E8E3F1E09150E040F040E1F700C00000DC
:102F900018828FE493EC0197F1F700C0000062E320
:102FA00070E080E090E00E9482099FE7E8E3F1E0B2
:102FB0009150E040F040E1F700C0000018828FE43B
:102FC00093EC0197F1F700C0000067E370E080E048
:102FD00090E00E9482099FE7E8E3F1E09150E04031
:102FE000F040E1F700C0000018828FE493EC0197F5
:102FF000F1F700C0000067E370E080E090E00E941D
:1030000082099FE7E8E3F1E09150E040F040E1F70A
:1030100000C0000018828FE493EC0197F1F700C024
:10302000000067E370E080E090E00E9482099FE783
:10303000E8E3F1E09150E040F040E1F700C000002B
:1030400018828FE493EC0197F1F700C0000067E36A
:1030500070E080E090E00E9482099FE7E8E3F1E001
:103060009150E040F040E1F700C0000018828FE48A
:1030700093EC0197F1F700C0000062E370E080E09C
:1030800090E00E9482099FE7E8E3F1E09150E04080
:10309000F040E1F700C0000018828FE493EC019744
:1030A000F1F700C0000062E370E080E090E00E9471
:1030B00082099FE7E8E3F1E09150E040F040E1F75A
:1030C00000C0000018828FE493EC0197F1F700C074
:1030D000000067E370E080E090E00E9482099FE7D3
:1030E000E8E3F1E09150E040F040E1F700C000007B
:1030F00018828FE493EC0197F1F700C0000067E3BA
:1031000070E080E090E00E9482099FE7E8E3F1E050
:103110009150E040F040E1F700C0000018828FE4D9
:1031200093EC0197F1F700C0000062E370E080E0EB
:1031300090E00E9482099FE7E8E3F1E09150E040CF
:10314000F040E1F700C0000018828FE493EC019793
:10315000F1F700C0000062E370E080E090E00E94C0
:1031600082099FE7E8E3F1E09150E040F040E1F7A9
:1031700000C0000018828FE493EC0197F1F700C0C3
:10318000000067E370E080E090E00E9482099FE722
:10319000E8E3F1E09150E040F040E1F700C00000CA
:1031A00018828FE493EC0197F1F700C0000067E309
:1031B00070E080E090E00E9482099FE7E8E3F1E0A0
:1031C0009150E040F040E1F700C0000018828FE429
:1031D00093EC0197F1F700C0000067E370E080E036
:1031E00090E00E9482099FE7E8E3F1E09150E0401F
:1031F000F040E1F700C0000018828FE493EC0197E3
:10320000F1F700C0000067E370E080E090E00E940A
:1032100082099FE7E8E3F1E09150E040F040E1F7F8
:1032200000C0000018828FE493EC0197F1F700C012
:10323000000062E370E080E090E00E9482099FE776
:10324000E8E3F1E09150E040F040E1F700C0000019
:1032500018828FE493EC0197F1F700C0000062E35D
:1032600070E080E090E00E9482099FE7E8E3F1E0EF
:103270009150E040F040E1F700C0000018828FE478
:1032800093EC0197F1F700C0000067E370E080E085
:1032900090E00E9482099FE7E8E3F1E09150E0406E
:1032A000F040E1F700C0000018828FE493EC019732
:1032B000F1F700C0000067E370E080E090E00E945A
:1032C00082099FE7E8E3F1E09150E040F040E1F748
:1032D00000C0000018828FE493EC0197F1F700C062
:1032E000000067E370E080E090E00E9482099FE7C1
:1032F000E8E3F1E09150E040F040E1F700C0000069
:1033000018828FE493EC0197F1F700C0000067E3A7
:1033100070E080E090E00E9482099FE7E8E3F1E03E
:103320009150E040F040E1F700C0000018828FE4C7
:1033300093EC0197F1F700C0000062E370E080E0D9
:1033400090E00E9482099FE7E8E3F1E09150E040BD
:10335000F040E1F700C0000018828FE493EC019781
:10336000F1F700C0000062E370E080E090E00E94AE
:1033700082099FE7E8E3F1E09150E040F040E1F797
:1033800000C0000018828FE493EC0197F1F700C0B1
:10339000000067E370E080E090E00E9482099FE710
:1033A000E8E3F1E09150E040F040E1F700C00000B8
:1033B00018828FE493EC0197F1F700C0000067E3F7
:1033C00070E080E090E00E9482099FE7E8E3F1E08E
:1033D0009150E040F040E1F700C0000018828FE417
:1033E00093EC0197F1F700C0000062E370E080E029
:1033F00090E00E9482099FE7E8E3F1E09150E0400D
:10340000F040E1F700C0000018828FE493EC0197D0
:10341000F1F700C0000062E370E080E090E00E94FD
:1034200082099FE7E8E3F1E09150E040F040E1F7E6
:1034300000C0000018828FE493EC0197F1F700C000
:10344000000065E370E080E090E00E9482096EE297
:1034500070E080E090E00E94A0099FE7E8E3F1E0DF
:103460009150E040F040E1F700C0000018828FE486
:1034700093EC0197F1F700C0000065E370E080E095
:1034800090E00E9482099FE7E8E3F1E09150E0407C
:10349000F040E1F700C0000018828FE493EC019740
:1034A000F1F700C0000065E370E080E090E00E946A
:1034B00082099FE7E8E3F1E09150E040F040E1F756
:1034C00000C0000018828FE493EC0197F1F700C070
:1034D000000065E370E080E090E00E9482099FE7D1
:1034E000E8E3F1E09150E040F040E1F700C0000077
:1034F00018828FE493EC0197F1F700C0000062E3BB
:1035000070E080E090E00E9482099FE7E8E3F1E04C
:103510009150E040F040E1F700C0000018828FE4D5
:1035200093EC0197F1F700C0000062E370E080E0E7
:1035300090E00E9482099FE7E8E3F1E09150E040CB
:10354000F040E1F700C0000018828FE493EC01978F
:10355000F1F700C0000065E370E080E090E00E94B9
:1035600082099FE7E8E3F1E09150E040F040E1F7A5
:1035700000C0000018828FE493EC0197F1F700C0BF
:10358000000065E370E080E090E00E9482099FE720
:10359000E8E3F1E09150E040F040E1F700C00000C6
:1035A00018828FE493EC0197F1F700C0000065E307
:1035B00070E080E090E00E9482099FE7E8E3F1E09C
:1035C0009150E040F040E1F700C0000018828FE425
:1035D00093EC0197F1F700C0000065E370E080E034
:1035E00090E00E9482099FE7E8E3F1E09150E0401B
:1035F000F040E1F700C0000018828FE493EC0197DF
:10360000F1F700C0000062E370E080E090E00E940B
:1036100082099FE7E8E3F1E09150E040F040E1F7F4
:1036200000C0000018828FE493EC0197F1F700C00E
:10363000000062E370E080E090E00E9482099FE772
:10364000E8E3F1E09150E040F040E1F700C0000015
:1036500018828FE493EC0197F1F700C0000065E356
:1036600070E080E090E00E9482099FE7E8E3F1E0EB
:103670009150E040F040E1F700C0000018828FE474
:1036800093EC0197F1F700C0000065E370E080E083
:1036900090E00E9482099FE7E8E3F1E09150E0406A
:1036A000F040E1F700C0000018828FE493EC01972E
:1036B000F1F700C0000062E370E080E090E00E945B
:1036C00082099FE7E8E3F1E09150E040F040E1F744
:1036D00000C0000018828FE493EC0197F1F700C05E
:1036E000000062E370E080E090E00E9482099FE7C2
:1036F000E8E3F1E09150E040F040E1F700C0000065
:1037000018828FE493EC0197F1F700C0000064E3A6
:1037100070E080E090E00E9482096DE270E080E05D
:1037200090E00E94A0099FE7E8E3F1E09150E040BB
:10373000F040E1F700C0000018828FE493EC01979D
:10374000F1F700C0000064E370E080E090E00E94C8
:1037500082099FE7E8E3F1E09150E040F040E1F7B3
:1037600000C0000018828FE493EC0197F1F700C0CD
:10377000000064E370E080E090E00E9482099FE72F
:10378000E8E3F1E09150E040F040E1F700C00000D4
:1037900018828FE493EC0197F1F700C0000064E316
:1037A00070E080E090E00E9482099FE7E8E3F1E0AA
:1037B0009150E040F040E1F700C0000018828FE433
:1037C00093EC0197F1F700C0000061E370E080E046
:1037D00090E00E9482099FE7E8E3F1E09150E04029
:1037E000F040E1F700C0000018828FE493EC0197ED
:1037F000F1F700C0000062E370E080E090E00E941A
:1038000082099FE7E8E3F1E09150E040F040E1F702
:1038100000C0000018828FE493EC0197F1F700C01C
:10382000000064E370E080E090E00E9482099FE77E
:10383000E8E3F1E09150E040F040E1F700C0000023
:1038400018828FE493EC0197F1F700C0000065E364
:1038500070E080E090E00E9482099FE7E8E3F1E0F9
:103860009150E040F040E1F700C0000018828FE482
:1038700093EC0197F1F700C0000067E370E080E08F
:1038800090E00E9482099FE7E8E3F1E09150E04078
:10389000F040E1F700C0000018828FE493EC01973C
:1038A000F1F700C0000068E370E080E090E00E9463
:1038B00082099FE7E8E3F1E09150E040F040E1F752
:1038C00000C0000018828FE493EC0197F1F700C06C
:1038D000000069E370E080E090E00E9482099FE7C9
:1038E000E8E3F1E09150E040F040E1F700C0000073
:1038F00018828FE493EC0197F1F700C0000068E3B1
:1039000070E080E090E00E9482099FE7E8E3F1E048
:103910009150E040F040E1F700C0000018828FE4D1
:1039200093EC0197F1F700C0000069E370E080E0DC
:1039300090E00E9482099FE7E8E3F1E09150E040C7
:10394000F040E1F700C0000018828FE493EC01978B
:10395000F1F700C0000068E370E080E090E00E94B2
:1039600082099FE7E8E3F1E09150E040F040E1F7A1
:1039700000C0000018828FE493EC0197F1F700C0BB
:10398000000069E370E080E090E00E9482099FE718
:10399000E8E3F1E09150E040F040E1F700C00000C2
:1039A00018828FE493EC0197F1F700C0000069E3FF
:1039B00070E080E090E00E9482099FE7E8E3F1E098
:1039C0009150E040F040E1F700C0000018828FE421
:1039D00093EC0197F1F700C00000188217BCDF914B
:1039E000CF911F910F91089581E082B96CE470E04E
:1039F00080E090E00E94820964E370E080E090E063
:103A00000E94A0092FEF89E698E121508040904064
:103A1000E1F700C0000012B80E949D090C94BA0999
:103A200082E082B96CE470E080E090E00E9482095C
:103A300064E370E080E090E00E94A0092FEF89E647
:103A400098E1215080409040E1F700C0000012B89A
:103A50000E949D090C94BA0967E08EE492E00E94EE
:103A600033239695879596958795282F863430F43D
:103A700081E090E02D3220F480E0089582E090E033
:103A8000089567E08EE492E00E943323969587952F
:103A900096958795282F8C3330F481E090E02E3175
:103AA00020F480E0089582E090E0089586B185FBDF
:103AB000882780F9089586B186FB882780F90895C4
:103AC00086B182958170089586B1881F8827881FE6
:103AD000089586B183FB882780F908950E94561DBA
:103AE000882311F080E008950E94601D8111FACFB3
:103AF0000E94691D8111F6CF0E945B1D8111F2CFDA
:103B000086B18095881F8827881F0895CF93C82F76
:103B10006FEF70E08FEF90E00E9457232FE785EB67
:103B200091E0215080409040E1F700C000008C2FD0
:103B300090E0BC01CF910C9457235A9A5B9888E788
:103B40000C94861DCF93DF938BB1D4E08D278BB976
:103B50008BB1C8E08C278BB92FE788E391E0215027
:103B600080409040E1F700C0000070E060E090E02D
:103B700080E00E9457238BB18D278BB98BB18C27A6
:103B80008BB9DF91CF910895CF92DF92EF92FF92A0
:103B9000CF93DF93C82F5A9A5B9A2FEF89E698E16B
:103BA000215080409040E1F700C000008C2F0E941F
:103BB000861D2FEF81EE94E0215080409040E1F788
:103BC00000C000000E94A21DD0E06E010D2E000C6E
:103BD000EE08FF080E94561D882389F00E94601D90
:103BE00081110DC00E94691D811109C00E945B1DD9
:103BF000811105C0379903C0BE01CE0136C00E94B5
:103C0000561D811135C00E94561D882371F00E94F7
:103C1000601D882351F00E94691D811106C00E9419
:103C20005B1D882311F0379BE7CF0E94561D882328
:103C3000D9F10E94601D8823B9F10E94691D81118C
:103C400033C00E945B1D81112FC037992DC0C70161
:103C5000B6010E94202420E030E040E45FE30E94AF
:103C600084240E94EF23CB01BE010E945723B2CFD0
:103C70000E94601D8111C7CF0E94691D8111C3CFB1
:103C80000E945B1D882309F4BECF3799BCCFC701C2
:103C9000B6010E94202420E030E040E45FE30E946F
:103CA00084240E94EF23A9CF0E94561D811117C0C2
:103CB0000E94601D882399F00E94691D81110FC028
:103CC0000E945B1D81110BC0379909C0C701B60165
:103CD0000E9420242AE939E949E15FE3C0CF0E942C
:103CE000561D811117C00E94601D882399F00E9403
:103CF000691D882379F00E945B1D81110BC03799E3
:103D000009C0C701B6010E94202420E030E040E055
:103D10005FE3A5CF0E94561D811117C00E94601D50
:103D2000811113C00E94691D81110FC00E945B1D8B
:103D3000882359F0379909C0C701B6010E94202491
:103D40002AE939E949E15FE3AACF0E94561D8111B2
:103D500017C00E94601D811113C00E94691D81114E
:103D60000FC00E945B1D882359F0379B09C0C70113
:103D7000B6010E94202420E030E040E05FE38FCFD6
:103D80000E94561D811117C00E94601D811113C031
:103D90000E94691D882379F00E945B1D81110BC070
:103DA000379909C0C701B6010E94202420E030E005
:103DB00040E85EE354CF0E94561D811117C00E9457
:103DC000601D811113C00E94691D81110FC00E94E6
:103DD0005B1D81110BC0379B09C0C701B6010E9452
:103DE000202420E030E040E85EE359CF0E94561DD9
:103DF00081111AC00E94561D81112EC00E94561DAD
:103E0000811139C00E94561D811146C00E94561D65
:103E1000811152C00E946E1D81115FC086E90E940F
:103E2000861D0E94A21DD6CE0E94601D882311F31C
:103E30000E94691D8823F1F20E945B1D8823D1F244
:103E4000379BD8CF0E94A21DDF91CF91FF90EF90BA
:103E5000DF90CF900C94A21D0E94601D882371F208
:103E60000E94691D882351F20E945B1D882331F254
:103E70003799C4CFE7CF0E94601D882309F4C2CFD1
:103E80000E94691D8111BECF0E945B1D882309F429
:103E9000B9CF379BB7CFD6CF0E94601D8111B6CF67
:103EA0000E94691D8111B2CF0E945B1D882309F415
:103EB000ADCF379BABCFC6CF0E94601D882309F4DE
:103EC000A9CF0E94691D882309F4A4CF0E945B1D1D
:103ED0008111A0CF37999ECFB5CF66E970E086E912
:103EE00090E00E9457238FEC97E00197F1F700C014
:103EF00000000E946E1D882309F46CCEA5CF2FEF21
:103F000089E698E1215080409040E1F700C0000030
:103F10005A9A5B9A6FEF70E08FEF90E00E94572300
:103F20002FE785EB91E0215080409040E1F700C001
:103F3000000066E970E086E990E00E9457232FEFC9
:103F400082E597E0215080409040E1F700C00000FA
:103F50000E94A21D5A9A5B982FEF89E698E12150A2
:103F600080409040E1F700C0000086E90E94861D75
:103F70002FEF8EE994E2215080409040E1F700C09D
:103F800000000E94A21D2FEF89E698E12150804099
:103F90009040E1F700C0000086E90E94861D0E9463
:103FA000691D8823E1F32FEF80E792E021508040E4
:103FB0009040E1F700C000000C94A21D2FEF89E6AD
:103FC00098E1215080409040E1F700C000005A9AEB
:103FD0005B9A6FEF70E08FEF90E00E9457232FE71E
:103FE00085EB91E0215080409040E1F700C0000057
:103FF00066E970E086E990E00E9457232FEF88EF92
:1040000095E1215080409040E1F700C000000C9401
:10401000A21D0E94DE1F5A9A5B982FEF89E698E155
:10402000215080409040E1F700C000008CE80E94E1
:10403000861D2FEF82E597E0215080409040E1F708
:1040400000C000000E94691D8823E1F30C94A21DAA
:104050000E94DE1F5B9A5A982FEF89E698E1215063
:1040600080409040E1F700C000008CE80E94861D6F
:104070002FEF82E597E0215080409040E1F700C0AB
:104080000000379BFECF0C94A21D9F92AF92BF926F
:10409000CF92DF92EF92FF920F931F93CF93DF9314
:1040A000C82F5A9A5B9A2FEF89E698E121508040F9
:1040B0009040E1F700C000008C2F0E94861D2FEF7A
:1040C00081EE94E0215080409040E1F700C0000074
:1040D0000E94A21DB12CA12CD0E06E010D2E000C6F
:1040E000EE08FF082FEFA21AB20A0E94561D88237D
:1040F00099F00E94601D81110FC00E94691D8111FD
:104100000BC00E945B1D811107C0379905C0BE011D
:10411000CE010E945723E6CF0E94561D811128C070
:104120000E94561D81113FC00E94561D81114CC036
:104130000E94561D811160C00E94561D81117AC0D7
:104140000E94601D882309F475C00E94691D8111B9
:1041500071C00E945B1D81116DC037996BC0C70192
:10416000B6010E9420242AE939E949E15FE35BC0F6
:104170000E94601D8111D4CF0E94691D8111D0CF92
:104180000E945B1D882361F23799CACFC701B6012F
:104190000E94202420E030E040E45FE30E94842479
:1041A0000E94EF23B5CF0E94601D882309F4BCCF85
:1041B0000E94691D8111B8CF0E945B1D882309F4FC
:1041C000B3CF3799B1CFA3CF0E94601D8111B0CF7B
:1041D0000E94691D8111ACCF0E945B1D882309F4E8
:1041E000A7CF379BA5CFC701B6010E94202420E0AE
:1041F00030E040E05FE3D2CF0E94601D882309F4E5
:104200009BCF0E94691D811197CF0E945B1D811178
:1042100093CF379991CFC701B6010E94202420E0A7
:1042200030E040E45FE30E9484240E94EF23CB014E
:10423000BE016FCF0E94561D811117C00E94601DE4
:10424000882399F00E94691D882379F00E945B1DE4
:1042500081110BC0379909C0C701B6010E94202403
:1042600020E030E040E05FE3DECF0E94561D811188
:1042700017C00E94601D811113C00E94691D811129
:104280000FC00E945B1D882359F0379909C0C701F0
:10429000B6010E9420242AE939E949E15FE37ECF93
:1042A0000E94561D81110EC00E94601D81110AC01E
:1042B0000E94691D811106C00E945B1D882311F0B8
:1042C000379991CF0E94561D811117C00E94601D21
:1042D000811113C00E94691D882379F00E945B1D23
:1042E00081110BC0379909C0C701B6010E94202473
:1042F00020E030E040E85EE396CF0E94561D811139
:1043000017C00E94601D811113C00E94691D811198
:104310000FC00E945B1D81110BC0379B09C0C701F4
:10432000B6010E94202420E030E040E85EE336CF72
:104330000E94561D811123C00E94561D811179C013
:1043400066E970E086E990E00E9457238FEF90E7DE
:1043500022E0815090402040E1F700C000000E9420
:104360006E1D182F882309F4BDCEC0E090EDA9166C
:1043700097E0B90614F4C82F10E000E08AC00E944C
:10438000601D8823C9F20E94691D8823A9F20E943A
:104390005B1D8111D1CF3799CFCF8FEC97E001977B
:1043A000F1F700C000000E94561D882309F49ACE40
:1043B0000E94601D882309F495CE0E94691D982EE5
:1043C000882309F48FCE0E945B1D082F81118ACEAD
:1043D000379988CE10E0C0E00E94A21D2FEF89E639
:1043E00098E1215080409040E1F700C00000CC23CC
:1043F00009F451C00E947F1F86E90E94C41D86E90E
:104400000E94C41D86E90E94C41D86E90E94C41D45
:1044100086E90E94C41D86E9DF91CF911F910F911B
:10442000FF90EF90DF90CF90BF90AF909F900C9453
:10443000C41D0E94601D882309F482CF0E94691D5B
:10444000882309F47DCF0E945B1D882309F478CF6F
:10445000379B76CF8FEC97E00197F1F700C0000013
:104460000E94561D882309F43DCE0E94601D8823BA
:1044700009F438CE0E94691D882309F433CE0E94C6
:104480005B1D082F882309F42DCE379B2BCE10E01F
:10449000C0E0912CA1CF002359F00E947F1F86E934
:1044A0000E94C41D86E90E94C41D0E942820ADCF31
:1044B00011110DC0992059F00E947F1F86E90E94BA
:1044C000C41D86E90E94C41D0E9409209ECFDF9171
:1044D000CF911F910F91FF90EF90DF90CF90BF9001
:1044E000AF909F9008950E94DE1F5A9A5B982FEF1D
:1044F00089E698E1215080409040E1F700C000003B
:1045000086E90E94861D2FEF88EF95E121508040BB
:104510009040E1F700C000000E94A21D2FEF89E645
:1045200098E1215080409040E1F700C0000086E90A
:104530000E94861D0E94691D8823E1F32FEF8DEEF6
:1045400092E0215080409040E1F700C000000C94C0
:10455000A21D0E94DE1F5B9A5A982FEF89E698E110
:10456000215080409040E1F700C0000086E90E94A1
:10457000861D2FEF88EF95E1215080409040E1F7B4
:1045800000C000000E94A21D2FEF89E698E1215093
:1045900080409040E1F700C0000086E90E94861D3F
:1045A000379BFECF2FEF8DEE92E021508040904060
:1045B000E1F700C000000C94A21D5B9A5A9888E7AE
:1045C0000E94861D2FEF8AE693E0215080409040A4
:1045D000E1F700C000000C94A21D0E94601D88231A
:1045E00011F081E008950E94691D8111FACF0E94A7
:1045F000561D8111F6CF0E945B1D8111F2CF86B14D
:10460000881F8827881F0895CF93C82F6CE470E017
:1046100080E090E00E94820964E370E080E090E036
:104620000E94A009CA50C83090F40E9424092FEFBC
:104630008DE399E4215080409040E1F700C00000F4
:104640000E9438090E949D09CF910C94BA090E94DA
:104650002109EDCF10927C0086E880937A000895BE
:1046600010927A00089580917C00807E80937C0077
:1046700080917C006770682B60937C0080917A0049
:10468000806480937A0080917A0084FFFCCF8091CF
:104690007A00806180937A0020917800909179006F
:1046A000892F90E0982F8827820F911D0895FB0194
:1046B0002FE5AC01249FC001259F900D112424E615
:1046C00030E0B9010E94D52370938900609388007F
:1046D0004AE54E9FC0014F9F900D1124B9010E94E1
:1046E000D52370938B0060938A0008951092850003
:1046F00010928400E0E8F0E08081816A8083E1E844
:10470000F0E0808182608083109282000895CF93D0
:10471000DF93CDB7DEB76A970FB6F894DEBF0FBE52
:10472000CDBF0E9405090E94A1080E94CD088E01FC
:104730000A5E1F4F85E0F80111928A95E9F781E042
:104740008E8BC8010E944906FFE728E381E0F15003
:1047500020408040E1F700C00000BE016F5F7F4F46
:10476000C8010E9428079FEFE9E6F8E19150E04078
:10477000F040E1F700C000000E9405090E94A10876
:10478000B801CE0101960E946C0186E90E94452085
:104790000E94BC090E942109FFCF8EE492E00C9494
:1047A0002A238EE492E00C943023AA1BBB1B51E118
:1047B00007C0AA1FBB1FA617B70710F0A61BB70B91
:1047C000881F991F5A95A9F780959095BC01CD0136
:1047D0000895EE0FFF1F0590F491E02D09940E94BB
:1047E000632488F09F5798F0B92F9927B751B0F0FC
:1047F000E1F0660F771F881F991F1AF0BA95C9F765
:1048000014C0B13091F00E947D24B1E008950C9461
:104810007D24672F782F8827B85F39F0B93FCCF314
:10482000869577956795B395D9F73EF490958095E1
:10483000709561957F4F8F4F9F4F0895E89409C001
:1048400097FB3EF490958095709561957F4F8F4FC3
:104850009F4F9923A9F0F92F96E9BB279395F695D9
:10486000879577956795B795F111F8CFFAF4BB0F57
:1048700011F460FF1BC06F5F7F4F8F4F9F4F16C0BB
:10488000882311F096E911C0772321F09EE8872F45
:10489000762F05C0662371F096E8862F70E060E001
:1048A0002AF09A95660F771F881FDAF7880F96957A
:1048B000879597F9089557FD9058440F551F59F063
:1048C0005F3F71F04795880F97FB991F61F09F3FFD
:1048D00079F087950895121613061406551FF2CF26
:1048E0004695F1DF08C0161617061806991FF1CF76
:1048F00086957105610508940895E894BB2766279D
:104900007727CB0197F908950E9497240C94B92535
:104910000E94AB2538F00E94B22520F0952311F0BB
:104920000C947B250C94812511240C947E240E94E8
:104930005B2470F3959FC1F3950F50E0551F629F64
:10494000F001729FBB27F00DB11D639FAA27F00DE8
:10495000B11DAA1F649F6627B00DA11D661F829F0F
:104960002227B00DA11D621F739FB00DA11D621FF4
:10497000839FA00D611D221F749F3327A00D611D11
:10498000231F849F600D211D822F762F6A2F1124F3
:104990009F5750409AF0F1F088234AF0EE0FFF1F26
:1049A000BB1F661F771F881F91505040A9F79E3F7D
:1049B000510580F00C947B250C947E245F3FE4F33A
:1049C000983ED4F3869577956795B795F795E795D3
:1049D0009F5FC1F7FE2B880F911D9695879597F9DC
:1049E0000895FA01EE0FFF1F309621053105A1F160
:1049F0006115710561F48038BFE39B0749F1689444
:104A00009038810561F08038BFEF9B0741F0992312
:104A10004AF5FF3FE1053105210519F1E8940894B5
:104A2000E795D901AA2329F4AB2FBE2FF85FD0F365
:104A300010C0FF5F70F4A695E0F7F73950F019F059
:104A4000FF3A38F49F779F930DD00F9007FC905852
:104A5000089546F00C94812560E070E080E89FE3C3
:104A600008954FE79F775F934F933F932F930E9453
:104A700014262F913F914F915F910E9484240C94B2
:104A8000492529F416F00C947B250C947D240C9474
:104A900081250E946324A8F39638A0F707F80F92A7
:104AA000E8942BE33AEA48EB5FE70E949A240F92DE
:104AB0000F920F924DB75EB70F920E945C26ECE703
:104AC000F0E00E9484254F915F91EF91FF91E59571
:104AD000EE1FFF1F49F0FE57E0684427EE0F441F0A
:104AE000FA95E1F74195550B0E94D6250F9007FEE8
:104AF0000C94CA25089597F99F6780E870E060E0FC
:104B000008959FEF80EC0895DF93CF931F930F9349
:104B1000FF92EF92DF927B018C01689406C0DA2E3F
:104B2000EF010E949724FE01E894A591259135910B
:104B300045915591A6F3EF010E94A826FE01970129
:104B4000A801DA9469F7DF90EF90FF900F911F9121
:104B5000CF91DF91089500240A94161617061806BF
:104B60000906089500240A94121613061406050671
:104B70000895092E0394000C11F4882352F0BB0F02
:104B800040F4BF2B11F460FF04C06F5F7F4F8F4F65
:104B90009F4F08959B01AC0160E070E080E89FE3C7
:104BA0000C94FD260C947B250C946F270E946324A3
:104BB000D8F39923C9F3940F511DA3F3915050409A
:104BC00094F059F0882332F0660F771F881F9150B8
:104BD0005040C1F79E3F51052CF7880F911D9695C7
:104BE000879597F908955F3FACF0983E9CF0BB27FE
:104BF000869577956795B79508F4B1609395C1F759
:104C0000BB0F58F711F460FFE8CF6F5F7F4F8F4FF6
:104C10009F4FE3CF0C947E2416F00C946F270C94D6
:104C2000812568940C947B250E946324A8F3992322
:104C3000C1F3AEF3DF93CF931F930F93FF92C92F6E
:104C4000DD2788232AF02197660F771F881FDAF760
:104C500020E030E040E85FEB9FE3883920F0803EC1
:104C600038F021968F770E949126E4EAF0E004C0A4
:104C70000E949126E1EDF0E00E9484258B01BE01A7
:104C8000EC01FB2E6F5771097595771F880B990BF7
:104C90000E94202428E132E741E35FE30E94972449
:104CA000AF2D9801AE01FF900F911F91CF91DF9131
:104CB0000E94A8260C94B925FA01DC01AA0FBB1F9B
:104CC0009B01AC01BF5728F4222733274427507893
:104CD00020C0B75190F4AB2F002446953795279507
:104CE000011CA395D2F3002071F0220F331F441F43
:104CF000B395DAF30ED00C94902661307105A0E8DC
:104D00008A07B94630F49B01AC01662777278827CC
:104D10009078309621F02083318342835383089525
:104D20005058BB27AA270E94A8260C94B9250E9498
:104D3000AB2538F00E94B22520F039F49F3F19F4DA
:104D400026F40C9481250EF4E095E7FB0C947B256A
:104D5000E92F0E945B2458F3BA1762077307840790
:104D6000950720F079F4A6F50C947D240EF4E095D7
:104D70000B2EBA2FA02D0B01B90190010C01CA0115
:104D8000A0011124FF27591B99F0593F50F4503EC0
:104D900068F11A16F040A22F232F342F4427585FB2
:104DA000F3CF469537952795A795F0405395C9F7CA
:104DB0007EF41F16BA0B620B730B840BBAF0915082
:104DC000A1F0FF0FBB1F661F771F881FC2F70EC021
:104DD000BA0F621F731F841F48F4879577956795F4
:104DE000B795F7959E3F08F0B0CF9395880F08F0E0
:104DF0009927EE0F9795879508950E9411270C9497
:104E0000B9250E94B22558F00E94AB2540F029F444
:104E10005F3F29F00C947B2551110C947E240C9457
:104E200081250E945B2468F39923B1F3552391F304
:104E3000951B550BBB27AA2762177307840738F009
:104E40009F5F5F4F220F331F441FAA1FA9F335D066
:104E50000E2E3AF0E0E832D091505040E695001C1A
:104E6000CAF72BD0FE2F29D0660F771F881FBB1FD4
:104E7000261737074807AB07B0E809F0BB0B802DB2
:104E8000BF01FF2793585F4F3AF09E3F510578F0DE
:104E90000C947B250C947E245F3FE4F3983ED4F37E
:104EA000869577956795B795F7959F5FC9F7880FB2
:104EB000911D9695879597F90895E1E0660F771F04
:104EC000881FBB1F621773078407BA0720F0621B95
:104ED000730B840BBA0BEE1F88F7E09508959F3F84
:104EE00031F0915020F4879577956795B795880FA5
:104EF000911D9695879597F9089510E0C0E8D0E048
:104F000004C0FE010E94E9232196C138D107C9F7E8
:044F1000F894FFCF43
:104F1400FF00FF02FF04FF06FFFFFFFFFFFFFFFF8D
:104F2400FFFF04FF02FFFFFFFFFF06FF00FFFFFF7D
:104F3400FFFFFFFFFF06FF04FFFFFFFFFFFFFF016F
:104F4400FFFFFFFFFFFF06FF00FF04FFFFFFFFFF60
:104F5400FFFF02FFFFFFFFFFFFFFFF00FF06FFFF52
:104F6400FFFFFFFFFF03FFFFFFFF00FFFFFF02FF45
:104F740006FFFFFFFFFFFFFF04FFFFFFFFFFFFFF31
:104F8400FF02FF00FFFFFFFFFFFFFF05FFFF02FF20
:104F9400FFFFFFFF04FF00FFFFFFFFFFFFFF06FF10
:104FA400FF02FFFFFFFFFF04FFFFFFFFFFFFFFFF05
:104FB400FF07FFFFFFFFFFFFFFFFFFFFFFFFFFFFF5
:104FC400FFFFFFFFFF04FFFFFFFFFFFFFFFFFF02E5
:104FD400FFFFFFFFFF06FFFF01FFFFFFFFFFFFFFD4
:104FE40006FF04FFFFFFFFFFFFFFFF06FFFFFFFFBA
:104FF400FFFFFF00FF04FFFFFFFFFFFFFFFF03FFB3
:10500400FFFFFFFFFFFF00FF06FFFFFFFFFFFFFFA4
:10501400FF00FFFFFFFFFFFFFF02FF06FFFFFFFF91
:10502400FFFFFFFF05FFFFFFFFFFFFFF02FF00FF82
:10503400FFFFFFFFFFFFFF02FFFFFFFFFFFFFF0474
:10504400FF00FFFFFFFFFFFFFFFF07FF02FFFFFF60
:0E505400FFFF04FF0101010101010305070038
:00000001FF
